:020000040800F2
:1000000000000120F53A0008493300085533000884
:100010005B3300086133000867330008000000000C
:100020000000000000000000000000006D33000828
:100030007933000800000000853300089133000880
:100040003D3B00083D3B00083D3B00083D3B0008B0
:100050003D3B00083D3B00083D3B00083D3B0008A0
:100060003D3B00083D3B00083D3B00083D3B000890
:100070003D3B00083D3B00083D3B00083D3B000880
:100080003D3B00083D3B00083D3B00083D3B000870
:100090003D3B00083D3B00083D3B00083D3B000860
:1000A0003D3B00083D3B00083D3B00083D3B000850
:1000B0003D3B00083D3B00083D3B00083D3B000840
:1000C0003D3B00083D3B00083D3B00083D3B000830
:1000D0003D3B00083D3B00083D3B00083D3B000820
:1000E0003D3B00083D3B00083D3B00080000000090
:1000F0000000000000000000000000000000000000
:1001000000000000000000003D3B00083D3B0008EF
:100110003D3B00083D3B00083D3B00083D3B0008DF
:100120003D3B00083D3B00083D3B00083D3B0008CF
:100130003D3B00083D3B00083D3B00083D3B0008BF
:100140003D3B00083D3B00083D3B00083D3B0008AF
:10015000000000000000000000000000000000009F
:10016000000000000000000000000000000000008F
:10017000000000000000000000000000000000007F
:10018000000000000000000000000000000000006F
:10019000000000000000000000000000000000005F
:1001A000000000000000000000000000000000004F
:1001B000000000000000000000000000000000003F
:1001C000000000000000000000000000000000002F
:1001D000000000000000000000000000000000001F
:0401E0005FF8E0F1F3
:1001E40010B5054C237833B9044B13B10448AFF36D
:1001F40000800123237010BD7C010020000000005A
:10020400983B000808B5034B1BB103490348AFF3FF
:10021400008008BD0000000080010020983B000819
:1002240053B94AB9002908BF00281CBF4FF0FF3159
:100234004FF0FF3000F07AB9ADF1080C6DE904CE4F
:1002440000F006F8DDF804E0DDE9022304B07047AD
:100254002DE9F0478C460E460446089D002B50D1EC
:100264008A4217466CD9B2FA82FEBEF1000F0BD057
:10027400CEF1200C01FA0EF620FA0CFC02FA0EF76D
:100284004CEA060C00FA0EF43A0CBCFBF2F9BBB2D1
:1002940002FB19CC09FB03FA4FEA144848EA0C465E
:1002A400B2450AD9F61909F1FF3180F02581B2452A
:1002B40040F22281A9F102093E44A6EB0A06B6FBEC
:1002C400F2F002FB106600FB03F3A4B244EA064416
:1002D400A34209D9E41900F1FF3280F00B81A34253
:1002E40040F2088102383C440021E41A40EA094003
:1002F400002D62D0002324FA0EF42C606B60BDE85C
:10030400F0878B4207D9002D55D0002185E84100A4
:100314000846BDE8F087B3FA83F1002940F08F80E6
:10032400B34202D3824200F2FC80841A66EB0306D5
:100334000120B446002D40D085E81010BDE8F087B8
:1003440012B90127B7FBF2F7B7FA87FEBEF1000F27
:1003540035D10121F61B4FEA174C1FFA87F8B6FB7B
:10036400FCF20CFB126608FB02F0230C43EA06467F
:10037400B04207D9F61902F1FF3302D2B04200F2BB
:10038400D2801A46361AB6FBFCF00CFB106608FB4A
:1003940000F8A3B243EA0644A04507D9E41900F1E2
:1003A400FF3302D2A04500F2B9801846A4EB08043A
:1003B40040EA02409CE729462846BDE8F08707FA50
:1003C4000EF7CEF1200326FA03F24FEA174CB2FBE4
:1003D400FCF11FFA87F80CFB112206FA0EF620FA3C
:1003E40003F301FB08F933431E0C46EA0246B14508
:1003F40000FA0EF409D9F61901F1FF3280F08C806D
:10040400B14540F2898002393E44A6EB0906B6FBA9
:10041400FCF00CFB106200FB08F99EB246EA0246AF
:10042400B14507D9F61900F1FF3371D2B1456FD93F
:1004340002383E44A6EB090640EA01418FE7C1F1C8
:10044400200722FA07F88B4048EA030326FA07F448
:100454004FEA134EB4FBFEF91FFA83FC0EFB19445A
:100464008E4020FA07F809FB0CFA48EA06084FEA1E
:10047400184646EA0444A24502FA01F200FA01F6DB
:1004840008D9E41809F1FF3044D2A24542D9A9F1B0
:1004940002091C44A4EB0A04B4FBFEF00EFB104456
:1004A40000FB0CFC1FFA88F848EA0444A44507D969
:1004B400E41800F1FF3E29D2A44527D902381C4490
:1004C40040EA0940A0FB0289A4EB0C0CCC45C246CF
:1004D400CE4615D312D055B1B6EB0A036CEB0E061B
:1004E40006FA07F7CB401F43CE402F606E60002111
:1004F400BDE8F0871046F7E68946DEE64645EAD2CF
:10050400B8EB020A69EB030E0138E4E77046D7E75B
:1005140018468FE78146BDE7114676E702383C442A
:1005240044E7084606E7023A3E442BE7704700BF1B
:1005340080B500AF084A084B1B6843F010031360F2
:10054400032000F027F9002000F008F802F0C8FEAC
:100554000023184680BD00BF0020024080B582B051
:1005640000AF7860124B1A68124B1B7819464FF48F
:100574007A73B3FBF1F3B2FBF3F3184600F031F9ED
:100584000346002B01D001230EE07B680F2B0AD811
:10059400002279684FF0FF3000F007F9064A7B68C3
:1005A4001360002300E0012318460837BD4680BDD0
:1005B40018010020040000200000002080B400AFD7
:1005C400054B1B781A46054B1B681344034A1360FA
:1005D40000BFBD4680BC704704000020B803002063
:1005E40080B400AF024B1B681846BD4680BC704700
:1005F400B803002080B584B000AF7860FFF7F0FF47
:10060400B8607B68FB60FB68B3F1FF3F05D0094B22
:100614001B781A46FB681344FB6000BFFFF7E0FF3A
:100624000246BB68D21AFB689A42F7D300BF103760
:10063400BD4680BD0400002080B485B000AF786062
:100644007B6803F00703FB600C4BDB68BB60BA6894
:100654004FF6FF031340BB60FB681A02BB681343E9
:1006640043F0BF6343F40033BB60044ABB68D36008
:1006740000BF1437BD4680BC704700BF00ED00E0EA
:1006840080B400AF044BDB681B0A03F00703184671
:10069400BD4680BC704700BF00ED00E080B483B06D
:1006A40000AF03463960FB7197F90730002B0ADB72
:1006B4000D4997F907303A68D2B21201D2B20B440D
:1006C40083F800230AE00949FB7903F00F03043B94
:1006D4003A68D2B21201D2B20B441A7600BF0C3778
:1006E400BD4680BC704700BF00E100E000ED00E0C3
:1006F40080B489B000AFF860B9607A60FB6803F039
:100704000703FB61FB69C3F10703042B28BF042320
:10071400BB61FB690433062B02D9FB69033B00E090
:1007240000237B610122BB6902FA03F35A1EBB68F2
:100734001A407B699A4001217B6901FA03F3591E2F
:100744007B680B40134318462437BD4680BC704772
:1007540080B582B000AF78607B68013BB3F1807FE5
:1007640001D301230FE00A4A7B68013B53600F2148
:100774004FF0FF30FFF792FF054B00229A60044BC5
:1007840007221A60002318460837BD4680BD00BF03
:1007940010E000E080B582B000AF78607868FFF7C1
:1007A4004BFF00BF0837BD4680BD80B586B000AFA3
:1007B4000346B9607A60FB7300237B61FFF760FF37
:1007C40078617A68B9687869FFF792FF024697F909
:1007D4000F3011461846FFF761FF00BF1837BD46BA
:1007E40080BD80B582B000AF78607868FFF7B0FF55
:1007F400034618460837BD4680BDF0B58FB00AAF32
:1008040078607B68002B01D101230FE17B681B68B2
:10081400BB607B6893F8BD33DBB2002B06D17B68E9
:10082400002283F8BC23786802F0DEFE7B68032292
:1008340083F8BD23BB68DB6B03F48073002B02D108
:100844007B6800221A617B681B68184601F096F9E0
:100854007B681B683B607E686D4606F110040FCC14
:100864000FC50FCC0FC594E8030085E80300331DC2
:100874000ECB386801F02AF90346002B05D07B68BB
:10088400022283F8BD230123D0E07B681B6800218A
:10089400184601F083F90023FB734AE0FA7B796878
:1008A4001346DB009B1A9B000B443D3301221A7054
:1008B400FA7B79681346DB009B1A9B000B443C339C
:1008C400FA7B1A70FA7BFB7B98B279681346DB00DB
:1008D4009B1A9B000B44423302461A80FA7B7968C8
:1008E4001346DB009B1A9B000B443F3300221A7013
:1008F400FA7B79681346DB009B1A9B000B44443354
:1009040000221A60FA7B79681346DB009B1A9B006D
:100914000B44483300221A60FA7B79681346DB00E3
:100924009B1A9B000B44503300221A60FB7B01335B
:10093400FB73FA7B7B685B689A42AFD30023FB733B
:1009440044E0FA7B79681346DB009B1A9B000B4456
:1009540003F2FD1300221A70FA7B79681346DB0058
:100964009B1A9B000B4403F5FE73FA7B1A70FA7B07
:1009740079681346DB009B1A9B000B4403F2FF13B8
:1009840000221A70FA7B79681346DB009B1A9B00DD
:100994000B4403F5017300221A60FA7B796813464D
:1009A400DB009B1A9B000B4403F5027300221A60C0
:1009B400FA7B79681346DB009B1A9B000B4403F512
:1009C400047300221A60FB7B0133FB73FA7B7B68A0
:1009D4005B689A42B5D37B681B683B607E686D4652
:1009E40006F110040FCC0FC50FCC0FC594E803001B
:1009F40085E80300331D0ECB386801F0F9F803468F
:100A0400002B05D07B68022283F8BD2301230DE06F
:100A14007B68002283F838207B68012283F8BD2399
:100A24007B681B68184601F056FF002318461437EC
:100A3400BD46F0BD80B582B000AF78607B6893F8A6
:100A4400BC33012B01D1022312E07B68012283F81D
:100A5400BC237B681B68184601F024FF7B681B6875
:100A6400184601F07BF87B68002283F8BC2300233E
:100A740018460837BD4680BD80B584B000AF7860A5
:100A8400084611461A460346FB700B463B80134644
:100A9400BB700023FB7297F90330002B0FDAFB784D
:100AA40003F00F021346DB009B1A9B0038337A686D
:100AB40013440433FB60FB6801225A700FE0FB7897
:100AC40003F00F021346DB009B1A9B0003F5FC7333
:100AD4007A6813440433FB60FB6800225A70FB7885
:100AE40003F00F03DAB2FB681A703A88FB689A6065
:100AF400FB68BA78DA70FB685B78002B04D0FB687B
:100B04001B789AB2FB68DA80BB78022B02D1FB68AF
:100B140000221A717B6893F8BC33012B01D10223A4
:100B24000EE07B68012283F8BC237B681B68F968AC
:100B3400184601F0E6F97B68002283F8BC23FB7AAF
:100B440018461037BD4680BD80B584B000AF7860CC
:100B54000B46FB7097F90330002B0FDAFB7803F098
:100B64000F021346DB009B1A9B0038337A68134448
:100B74000433FB60FB6801225A700FE0FB7803F03A
:100B84000F021346DB009B1A9B0003F5FC737A6883
:100B940013440433FB60FB6800225A70FB7803F0B3
:100BA4000F03DAB2FB681A707B6893F8BC33012B2D
:100BB40001D102230EE07B68012283F8BC237B6809
:100BC4001B68F968184601F027FA7B68002283F84D
:100BD400BC23002318461037BD4680BD80B586B0BF
:100BE40000AFF8607A603B600B46FB72FB7A03F05F
:100BF4000F021346DB009B1A9B0003F5FC73FA6893
:100C0400134404337B617B697A68DA607B693A68F0
:100C14005A617B6900229A617B6900225A70FB7ACF
:100C240003F00F03DAB27B691A70FB7A03F00F0347
:100C3400002B06D1FB681B687969184601F066FC35
:100C440005E0FB681B687969184601F06DFA00231A
:100C540018461837BD4680BD80B483B000AF7860B5
:100C64000B46FB70FB7803F00F0279681346DB0038
:100C74009B1A9B000B4403F505731B6818460C373D
:100C8400BD4680BC704780B586B000AFF8607A601E
:100C94003B600B46FB72FB7A03F00F021346DB004A
:100CA4009B1A9B003833FA68134404337B617B69D5
:100CB4007A68DA607B693A685A617B6900229A61D2
:100CC4007B6901225A70FB7A03F00F03DAB27B6965
:100CD4001A70FB7A03F00F03002B06D1FB681B6824
:100CE4007969184601F012FC05E0FB681B68796914
:100CF400184601F019FA002318461837BD4680BD7E
:100D040080B584B000AF78600B46FB70FB7803F0CD
:100D14000F027B685B689A4201D901234EE097F980
:100D24000330002B0FDAFB7803F00F021346DB00CD
:100D34009B1A9B0038337A6813440433FB60FB68C6
:100D440001225A700DE0FA781346DB009B1A9B00CF
:100D540003F5FC737A6813440433FB60FB680022D8
:100D64005A70FB6801229A70FB7803F00F03DAB221
:100D7400FB681A707B6893F8BC33012B01D1022302
:100D84001CE07B68012283F8BC237B681B68F9683C
:100D9400184601F016FDFB7803F00F03002B08D171
:100DA4007B681A687B6803F571731946104601F075
:100DB400ABFD7B68002283F8BC2300231846103760
:100DC400BD4680BD80B485B000AF78600B46FB7033
:100DD40013463B807B681B685B6ABB60FB78002B17
:100DE40007D17B681B683A881104BA680A439A627F
:100DF40028E07B681B689B6A1B0CBA681344BB60C1
:100E04000023FB730DE07B681A68FB7B40339B0077
:100E140013445B681B0CBA681344BB60FB7B01334F
:100E2400FB73FA7BFB78013B9A42ECD37B6819682D
:100E3400FB78013B3A881004BA68024340339B00B4
:100E44000B445A60002318461437BD4680BC7047D3
:100E540080B483B000AF78600B467B807B681B68EE
:100E64007A885A62002318460C37BD4680BC704706
:100E740080B586B000AF78607B68002B01D1012378
:100E840004E37B681B6803F00103002B00F08780F8
:100E9400924B5B6803F00C03042B0CD08F4B5B6804
:100EA40003F00C03082B12D18C4B5B6803F48033E2
:100EB400B3F5803F0BD1894B1B6803F40033002B3F
:100EC4006CD07B689B68002B68D10123DEE27B68D1
:100ED4009B68B3F5803F06D1804A804B1B6843F47E
:100EE400803313602EE07B689B68002B0CD17B4A17
:100EF4007A4B1B6823F480331360784A774B1B6862
:100F040023F4802313601DE07B689B68B3F5A02F56
:100F14000CD1724A714B1B6843F4802313606F4AEF
:100F24006E4B1B6843F4803313600BE06B4A6B4BCE
:100F34001B6823F480331360684A684B1B6823F4EE
:100F4400802313607B689B68002B13D0FFF748FB5A
:100F5400386108E0FFF744FB02463B69D31A642B6F
:100F640001D9032392E25D4B1B6803F40033002B89
:100F7400F0D014E0FFF734FB386108E0FFF730FBF2
:100F840002463B69D31A642B01D903237EE2534BF7
:100F94001B6803F40033002BF0D100E000BF7B6832
:100FA4001B6803F00203002B63D04C4B5B6803F017
:100FB4000C03002B0BD0494B5B6803F00C03082B8C
:100FC4001CD1464B5B6803F48033002B16D1434B92
:100FD4001B6803F00203002B05D07B685B69012BBF
:100FE40001D0012352E23D493C4B1B6823F0F80237
:100FF4007B689B69DB0013430B603AE07B685B69A9
:10100400002B20D0364B01221A60FFF7E9FA386131
:1010140008E0FFF7E5FA02463B69D31A022B01D92F
:10102400032333E22D4B1B6803F00203002BF0D0A3
:101034002A492A4B1B6823F0F8027B689B69DB0072
:1010440013430B6015E0264B00221A60FFF7C8FA21
:10105400386108E0FFF7C4FA02463B69D31A022B51
:1010640001D9032312E21D4B1B6803F00203002B7A
:10107400F0D17B681B6803F00803002B3AD07B682F
:10108400DB69002B19D0174B01221A60FFF7A8FA6D
:10109400386108E0FFF7A4FA02463B69D31A022B31
:1010A40001D90323F2E10D4B5B6A03F00203002B29
:1010B400F0D0012000F0BAFB1CE00A4B00221A60B9
:1010C400FFF78EFA38610FE0FFF78AFA02463B69B0
:1010D400D31A022B08D90323D8E100BF0010024021
:1010E40000004242800442429B4B5B6A03F00203CD
:1010F400002BE9D17B681B6803F00403002B00F08C
:10110400A6800023FB75944BDB6903F08053002B0E
:101114000DD1914A904BDB6943F08053D3618E4BE0
:10112400DB6903F08053BB60BB680123FB758B4B09
:101134001B6803F48073002B18D1884A874B1B6803
:1011440043F480731360FFF74BFA386108E0FFF74C
:1011540047FA02463B69D31A642B01D9032395E16C
:101164007E4B1B6803F48073002BF0D07B681B69F3
:10117400012B06D1784A784B1B6A43F001031362B2
:101184002DE07B681B69002B0CD1734A724B1B6AE0
:1011940023F001031362704A6F4B1B6A23F00403AC
:1011A40013621CE07B681B69052B0CD16A4A6A4BED
:1011B4001B6A43F004031362674A674B1B6A43F0DC
:1011C400010313620BE0644A634B1B6A23F00103BF
:1011D4001362614A604B1B6A23F0040313627B6849
:1011E4001B69002B15D0FFF7FBF938610AE0FFF704
:1011F400F7F902463B69D31A41F28832934201D986
:10120400032343E1544B1B6A03F00203002BEED08B
:1012140014E0FFF7E5F938610AE0FFF7E1F9024667
:101224003B69D31A41F28832934201D903232DE159
:10123400494B1B6A03F00203002BEED1FB7D012B0B
:1012440005D1454A444BDB6923F08053D3617B6865
:10125400DB6A002B00F08C803F4B5B6803F4803327
:10126400B3F5803F0ED13C4B5B6803F00C03082BB5
:1012740008D1394BDB6A03F48033B3F5803F01D1E5
:10128400012303E17B68DB6A022B4ED1324B1B68DE
:1012940003F08053002B09D02F4BDB6A03F0F002DC
:1012A4007B685B6B9A4201D00123EFE02C4B002258
:1012B4001A60FFF795F9386108E0FFF791F90246E3
:1012C4003B69D31A642B01D90323DFE0224B1B684B
:1012D40003F00063002BF0D11F491F4BDB6A23F09E
:1012E400F0027B685B6B1343CB621B491A4BDB6ACE
:1012F40023F470627B681B6B1343CB62184B01228F
:101304001A60FFF76DF9386108E0FFF769F90246E2
:101314003B69D31A642B01D90323B7E00E4B1B6836
:1013240003F00063002BF0D022E00B4A0A4BDB6A87
:1013340023F48033D3620A4B00221A60FFF750F97A
:1013440038610FE0FFF74CF902463B69D31A642B6E
:1013540008D903239AE000BF001002400070004047
:10136400680042424B4B1B6803F00063002BE9D139
:101374007B681B6A002B00F08880464B5B6803F097
:101384000C03082B68D07B681B6A022B4DD1424B9F
:1013940000221A60FFF724F9386108E0FFF720F90A
:1013A40002463B69D31A022B01D903236EE0394B61
:1013B4001B6803F00073002BF0D17B685B6AB3F504
:1013C400803F0FD13349334BDA6A7B685B68134340
:1013D400CB6230492F4BDB6A23F00F027B68DB685A
:1013E4001343CB622B482B4B5B6823F474127B684A
:1013F400596A7B689B6A0B4313434360264B012263
:101404001A60FFF7EDF8386108E0FFF7E9F80246E3
:101414003B69D31A022B01D9032337E01D4B1B6808
:1014240003F00073002BF0D02FE01B4B00221A6056
:10143400FFF7D6F8386108E0FFF7D2F802463B69B7
:10144400D31A022B01D9032320E0124B1B6803F0AB
:101454000073002BF0D118E07B681B6A012B01D1CB
:10146400012313E00B4B5B68FB60FB6803F48032E1
:101474007B685B6A9A4206D1FB6803F470127B684E
:101484009B6A9A4201D0012300E0002318461837D2
:10149400BD4680BD001002406000424280B584B069
:1014A40000AF786039607B68002B01D10123D0E064
:1014B4006A4B1B6803F007023B689A4210D26749E3
:1014C400664B1B6823F007023B6813430B60634BB6
:1014D4001B6803F007023B689A4201D00123B8E07D
:1014E4007B681B6803F00203002B20D07B681B6819
:1014F40003F00403002B05D0594A594B5B6843F4AD
:10150400E06353607B681B6803F00803002B05D07D
:10151400534A534B5B6843F4605353605049504BF8
:101524005B6823F0F0027B689B6813434B607B6825
:101534001B6803F00103002B40D07B685B68012B20
:1015440007D1474B1B6803F40033002B15D101234B
:101554007FE07B685B68022B07D1414B1B6803F07B
:101564000073002B09D1012373E03D4B1B6803F08A
:101574000203002B01D101236BE03949384B5B682E
:1015840023F003027B685B6813434B60FFF728F882
:10159400F8600AE0FFF724F80246FB68D31A41F228
:1015A4008832934201D9032353E02D4B5B6803F047
:1015B4000C027B685B689B009A42EBD1274B1B684B
:1015C40003F007023B689A4210D92449234B1B6855
:1015D40023F007023B6813430B60204B1B6803F0A6
:1015E40007023B689A4201D0012332E07B681B6802
:1015F40003F00403002B08D01949194B5B6823F44A
:10160400E0627B68DB6813434B607B681B6803F014
:101614000803002B09D01249114B5B6823F4605274
:101624007B681B69DB0013434B6000F021F8014623
:101634000B4B5B681B0903F00F030A4AD35C21FAC6
:1016440003F3094A1360094B1B681846FEF786FF2B
:10165400002318461037BD4680BD00BF002002405D
:1016640000100240183C000818010020000000206F
:101674002DE9F04F93B000AF674B07F11C060FCB79
:1016840007C63380654B07F10C060FCB86E80F00C5
:101694000023FB630023BB6300237B6400237B6381
:1016A40000233B6400233B630023FB625C4B5B68C9
:1016B400FB63FB6B03F00C03042B02D0082B03D059
:1016C400A0E0584B3B64A0E0FB6B9B0C03F00F03C2
:1016D40007F14802134413F82C3C7B63FB6B03F4BF
:1016E4008033002B00F086804D4BDB6A03F00F0340
:1016F40007F14802134413F83C3CBB63484BDB6AD4
:1017040003F48033002B63D0454BDB6A1B0903F0E1
:101714000F0301333B63424BDB6A1B0A03F00F03E5
:101724000233FB62FB6A18464FF000017B6B1A46DA
:101734004FF0000302FB01FE00FB03F67644A0FB1E
:1017440002017318194602460B465E017E607E68EC
:1017540046EAD2667E6053013B60D7E90023121A41
:1017640063EB01039D0145EA92659401A41A65EBBC
:1017740003054FEAC50B4BEA547B4FEAC40A5446AF
:101784005D46241845EB01054FEA452949EAD45939
:101794004FEA442844464D46A046A9463B6B1946A9
:1017A4004FF00002BB6B4FF0000403FB02F501FB9A
:1017B40004F02844A1FB0334021914461A462346B4
:1017C40040464946FEF72CFD03460C467B6407E081
:1017D4007B6B144A02FB03F2BB6BB2FBF3F37B6437
:1017E40097F829301A467B6B9A4208D17B6C5B08C8
:1017F4007B6404E07B6B0C4A02FB03F37B647B6C2D
:101804003B6402E0074B3B6400BF3B6C18464C371B
:10181400BD46BDE8F08F00BFB03B0008C03B0008E8
:101824000010024000127A0000093D0080B485B027
:1018340000AF78600A4B1B680A4AA2FB03235B0AC9
:101844007A6802FB03F3FB6000BFFB685A1EFA6070
:10185400002BF9D100BF1437BD4680BC704700BFD0
:1018640018010020D34D621080B588B000AF7860B5
:1018740000237B6100233B610023FB617B681B68C1
:1018840003F00103002B7DD00023FB768B4BDB6937
:1018940003F08053002B0DD1884A884BDB6943F059
:1018A4008053D361854BDB6903F08053FB60FB6895
:1018B4000123FB76824B1B6803F48073002B18D141
:1018C4007F4A7F4B1B6843F480731360FEF788FEE6
:1018D400786108E0FEF784FE02467B69D31A642B24
:1018E40001D90323E5E0764B1B6803F48073002BD6
:1018F400F0D0724B1B6A03F440733B613B69002BCD
:101904002ED07B685B6803F440723B699A4227D00F
:101914006A4B1B6A23F440733B616A4B01221A60D1
:10192400684B00221A60654A3B6913623B6903F005
:101934000103002B14D0FEF753FE78610AE0FEF792
:101944004FFE02467B69D31A41F28832934201D991
:101954000323AEE0594B1B6A03F00203002BEED0C5
:101964005649564B1B6A23F440727B685B681343E9
:101974000B62FB7E012B05D1504A504BDB6923F0EF
:101984008053D3617B681B6803F00203002B08D0EB
:101994004A494A4B5B6823F440427B689B68134383
:1019A4004B607B681B6803F00403002B08D0434999
:1019B400424BDB6A23F400327B68DB681343CB625F
:1019C4007B681B6803F00803002B08D03B493B4BA2
:1019D400DB6A23F480227B681B691343CB62374B99
:1019E400DB6A03F40033002B05D1344BDB6A03F4C8
:1019F4008023002B01D00123FB61FB69012B48D11B
:101A04002E4B1B6803F08053002B38D12B4B1B68E3
:101A140003F08063002B09D0284BDB6A03F0F0024B
:101A24007B689B699A4201D0012342E02349234BFE
:101A3400DB6A23F0F0027B689B691343CB621F4986
:101A44001E4BDB6A23F470427B685B691343CB62F1
:101A54001D4B01221A60FEF7C3FD786108E0FEF712
:101A6400BFFD02467B69D31A642B01D9032320E00E
:101A7400124B1B6803F00053002BF0D009E00F4B0E
:101A8400DB6A03F470427B685B699A4201D00123EC
:101A94000FE07B681B6803F01003002B08D0074994
:101AA400064B5B6823F480027B68DB6913434B605D
:101AB400002318462037BD4680BD00BF00100240F9
:101AC40000700040400442427000424284B080B53D
:101AD40084B000AF786007F11C0080E80E003B6B17
:101AE400012B22D17B689B6B23F480327B689A6341
:101AF4007B68DB6823F4840323F040037A68D360B3
:101B04007B68DB6823F440127B68DA60FB6C012B92
:101B140005D17B68DB6843F480127B68DA607868FF
:101B240000F03CFF0346FB7310E07B68DB6843F086
:101B340040027B68DA60786800F030FF0346FB738C
:101B44007B689B6B43F480327B689A63FB7B18460B
:101B54001037BD46BDE8804004B0704780B483B000
:101B640000AF78607B689B6843F001027B689A60F1
:101B7400002318460C37BD4680BC704780B483B040
:101B840000AF78607B689B6823F001027B689A60F1
:101B9400002318460C37BD4680BC704780B582B020
:101BA40000AF78600B46FB707B68DB6823F0C042B3
:101BB4007B68DA60FB78012B06D17B68DB6843F035
:101BC40000527B68DA600BE0FB78002B06D17B685F
:101BD400DB6843F080427B68DA6001E0012303E0C4
:101BE4003220FEF707FD002318460837BD4680BDA6
:101BF40084B080B586B000AF786007F1240080E837
:101C04000E000023FB757B68FB6000233B6109E049
:101C14007A683B6940339B00134400225A603B6955
:101C240001333B613B690E2BF2D97B689B6B43F418
:101C340000227B689A63FB6803F560631A460023FD
:101C44001360FB6803F500631A46FB6803F5006341
:101C54001B6813600321786800F03AF91021786852
:101C640000F0F2F80346002B01D00123FB757868DD
:101C740000F00EF90346002B01D00123FB75FB682D
:101C840003F500631A4600231361FB6803F5006340
:101C94001A4600235361FB6803F500631A460023C8
:101CA400D36100233B6143E03B695A01FB68134461
:101CB40003F510631B6803F00043B3F1004F18D120
:101CC4003B69002B0AD13B695A01FB68134403F5B5
:101CD40010631A464FF00063136013E03B695A0126
:101CE400FB68134403F510631A464FF090431360E6
:101CF40008E03B695A01FB68134403F510631A4674
:101D0400002313603B695A01FB68134403F5106315
:101D14001A46002313613B695A01FB68134403F517
:101D240010631A464FF67F3393603B6901333B617E
:101D34007A6A3B699A42B7D800233B6143E03B6926
:101D44005A01FB68134403F530631B6803F0004336
:101D5400B3F1004F18D13B69002B0AD13B695A01FA
:101D6400FB68134403F530631A464FF000631360B5
:101D740013E03B695A01FB68134403F530631A46C8
:101D84004FF09043136008E03B695A01FB68134429
:101D940003F530631A46002313603B695A01FB685C
:101DA400134403F530631A46002313613B695A0157
:101DB400FB68134403F530631A464FF67F33936090
:101DC4003B6901333B617A6A3B699A42B7D8FB6845
:101DD40003F500631A46FB6803F500631B6923F4EB
:101DE400807313617B6800229A617B686FF0804284
:101DF4005A617B689B6943F010027B689A617B6837
:101E04009A69104B13437A689361FB6B002B05D0DE
:101E14007B689B6943F008027B689A61FB6C012B29
:101E240007D17B689B6943F0804343F004037A68DD
:101E34009361FB7D18461837BD46BDE8804004B069
:101E4400704700BF00383C8080B485B000AF786034
:101E540039600023FB603B689B0143F020027B68F0
:101E64001A61FB680133FB60FB68084A934201D99D
:101E7400032306E07B681B6903F02003202BF0D0CA
:101E8400002318461437BD4680BC7047400D03003C
:101E940080B485B000AF78600023FB607B681022BB
:101EA4001A61FB680133FB60FB68084A934201D95D
:101EB400032306E07B681B6903F01003102BF0D0AA
:101EC400002318461437BD4680BC7047400D0300FC
:101ED40080B485B000AF78600B46FB707B68FB6014
:101EE400FB6803F500631946FB6803F500631A6891
:101EF400FB7813430B60002318461437BD4680BC9F
:101F0400704780B485B000AF786039607B68FB604F
:101F14003B681B78BB603B685B78012B3CD1FB685A
:101F240003F500631846FB6803F50063DA693B6850
:101F34001B7803F00F03012101FA03F39BB213434F
:101F4400C361BB685A01FB68134403F510631B6843
:101F540003F40043002B58D1BB685A01FB681344B7
:101F640003F510631846BB685A01FB68134403F574
:101F740010631A683B689B68C3F30A013B68DB780B
:101F84009B041943BB689B050B43134343F08053E5
:101F940043F40043036038E0FB6803F5006318462C
:101FA400FB6803F50063DA693B681B7803F00F03F1
:101FB400012101FA03F31B041343C361BB685A01F3
:101FC400FB68134403F530631B6803F40043002BE0
:101FD4001BD1BB685A01FB68134403F530631846F0
:101FE400BB685A01FB68134403F530631A683B6805
:101FF4009B68C3F30A013B68DB789B040B431343E0
:1020040043F0805343F4004303600023184614371D
:10201400BD4680BC7047000080B485B000AF7860D6
:1020240039607B68FB603B681B78BB603B685B780E
:10203400012B37D1FB6803F500631846FB6803F5F1
:102044000063DA6B3B681B7803F00F03012101FA8C
:1020540003F39BB2DB431340C363FB6803F50063E4
:102064001846FB6803F50063DA693B681B7803F0E4
:102074000F03012101FA03F39BB2DB431340C36155
:10208400BB685A01FB68134403F510631946BB6827
:102094005A01FB68134403F510631A68204B13407C
:1020A4000B6036E0FB6803F500631846FB6803F534
:1020B4000063DA6B3B681B7803F00F03012101FA1C
:1020C40003F31B04DB431340C363FB6803F50063A2
:1020D4001846FB6803F50063DA693B681B7803F074
:1020E4000F03012101FA03F31B04DB431340C36113
:1020F400BB685A01FB68134403F530631946BB6897
:102104005A01FB68134403F530631A68054B134006
:102114000B60002318461437BD4680BC704700BFCF
:10212400007833EC0078F3EF80B586B000AF7860C8
:1021340039607B687B613B681B783B613B685B78FB
:10214400012B40F017813B685B69002B35D13B695B
:102154005A017B69134403F5106319463B695A011C
:102164007B69134403F510631B6923F0FF5323F4C5
:10217400C0130B613B695A017B69134403F5106377
:1021840019463B695A017B69134403F510631B69C3
:1021940043F400230B613B695A017B69134403F543
:1021A400106319463B695A017B69134403F51063B4
:1021B4001B69DB0CDB040B617AE03B695A017B6928
:1021C400134403F5106319463B695A017B691344B0
:1021D40003F510631B69DB0CDB040B613B695A01DB
:1021E4007B69134403F5106319463B695A017B6903
:1021F400134403F510631B6923F0FF5323F4C01346
:102204000B613B695A017B69134403F5106318465B
:102214003B695A017B69134403F510631A693B68EF
:1022240059693B689B680B44591E3B689B68B1FB2A
:10223400F3F3D904A04B0B40134303613B695A01E8
:102244007B69134403F5106319463B695A017B69A2
:10225400134403F510631A693B685B69C3F3120303
:1022640013430B613B68DB78012B21D13B695A0195
:102274007B69134403F5106319463B695A017B6972
:10228400134403F510631B6923F0C0430B613B69DE
:102294005A017B69134403F5106319463B695A01DB
:1022A4007B69134403F510631B6943F000530B610E
:1022B4003B695A017B69134403F5106319463B6972
:1022C4005A017B69134403F510631B6843F004430C
:1022D4000B603B68DB78012B16D03B685B69002BF5
:1022E40000F00E817B6903F5006318467B6903F5F2
:1022F40000635A6B3B681B7803F00F03012101FA5A
:1023040003F313434363FBE07B6903F500639B68BA
:1023140003F48073002B11D13B695A017B69134488
:1023240003F5106319463B695A017B69134403F5AD
:1023340010631B6843F000530B6010E03B695A01C3
:102344007B69134403F5106319463B695A017B69A1
:10235400134403F510631B6843F080530B603B6820
:10236400D9683B681A783B685B699BB2786800F06F
:10237400F8F9C5E03B695A017B69134403F53063FE
:1023840019463B695A017B69134403F530631B69A1
:10239400DB0CDB040B613B695A017B69134403F5D5
:1023A400306319463B695A017B69134403F5306372
:1023B4001B6923F0FF5323F4C0130B613B685B6973
:1023C400002B25D13B695A017B69134403F5306323
:1023D40019463B695A017B69134403F530631A6952
:1023E4003B689B68C3F3120313430B613B695A01B7
:1023F4007B69134403F5306319463B695A017B69D1
:10240400134403F530631B6943F400230B6135E087
:102414003B685A693B689B6813445A1E3B689B6837
:10242400B2FBF3F3FB813B695A017B69134403F567
:10243400306318463B695A017B69134403F53063E2
:102444001A69FB89D9041C4B0B40134303613B6994
:102454005A017B69134403F5306318463B695A01FA
:102464007B69134403F530631A693B689B68F989F7
:1024740001FB03F3C3F31203134303613B68DB78EB
:10248400012B2CD17B6903F500639B6803F48073F3
:10249400002B13D13B695A017B69134403F5306364
:1024A40019463B695A017B69134403F530631B6881
:1024B40043F000530B6012E00000F81F3B695A011F
:1024C4007B69134403F5306319463B695A017B6900
:1024D400134403F530631B6843F080530B603B697E
:1024E4005A017B69134403F5306319463B695A0169
:1024F4007B69134403F530631B6843F004430B60AA
:10250400002318461837BD4680BD00BF80B485B08F
:1025140000AF786039607B68FB603B681B78BB6008
:102524003B685B78012B40F0B4803B685B69002B0F
:1025340035D1BB685A01FB68134403F5106319468F
:10254400BB685A01FB68134403F510631B6923F04D
:10255400FF5323F4C0130B61BB685A01FB68134497
:1025640003F510631946BB685A01FB68134403F56D
:1025740010631B6943F400230B61BB685A01FB68B9
:10258400134403F510631946BB685A01FB681344EE
:1025940003F510631B69DB0CDB040B6152E0BB68C1
:1025A4005A01FB68134403F510631946BB685A01CA
:1025B400FB68134403F510631B69DB0CDB040B613C
:1025C400BB685A01FB68134403F510631946BB68E2
:1025D4005A01FB68134403F510631B6923F0FF538E
:1025E40023F4C0130B613B685A693B689B689A42A9
:1025F40003D93B689A683B685A61BB685A01FB6817
:10260400134403F510631946BB685A01FB6813446D
:1026140003F510631B6943F400230B61BB685A0183
:10262400FB68134403F510631946BB685A01FB6841
:10263400134403F510631A693B685B69C3F312031F
:1026440013430B61BB685A01FB68134403F5106321
:102654001946BB685A01FB68134403F510631B68F1
:1026640043F004430B603B685B69002B73D0FB6849
:1026740003F500631846FB6803F500635A6B3B6877
:102684001B7803F00F03012101FA03F3134343639F
:1026940061E0BB685A01FB68134403F530631946D3
:1026A400BB685A01FB68134403F530631B69DB0CF8
:1026B400DB040B61BB685A01FB68134403F5306308
:1026C4001946BB685A01FB68134403F530631B6960
:1026D40023F0FF5323F4C0130B613B685B69002BA9
:1026E40003D03B689A683B685A61BB685A01FB682F
:1026F400134403F530631946BB685A01FB6813445D
:1027040003F530631B6943F400230B61BB685A0172
:10271400FB68134403F530631946BB685A01FB6830
:10272400134403F530631A693B689B68C3F31203CF
:1027340013430B61BB685A01FB68134403F5306310
:102744001946BB685A01FB68134403F530631B68E0
:1027540043F004430B60002318461437BD4680BC85
:10276400704780B489B000AFF860B96011461A466A
:102774000B46FB711346BB80FB687B61BB68FB6146
:10278400BB8803339B083B610023BB610FE0FB79EB
:102794001A037B69134403F580531A46FB691B68CB
:1027A4001360FB690433FB61BB690133BB61BA6924
:1027B4003B699A42EBD3002318462437BD4680BCBC
:1027C400704780B485B000AF786039607B68FB6087
:1027D4003B681B78BB603B685B78012B2ED1BB68E0
:1027E4005A01FB68134403F510631B68002B13DBC9
:1027F400BB68002B10D0BB685A01FB68134403F577
:1028040010631946BB685A01FB68134403F510634F
:102814001B6823F080430B60BB685A01FB681344B8
:1028240003F510631946BB685A01FB68134403F5AA
:1028340010631B6843F400130B602DE0BB685A015E
:10284400FB68134403F530631B68002B13DBBB6880
:10285400002B10D0BB685A01FB68134403F53063A6
:102864001946BB685A01FB68134403F530631B68BF
:1028740023F080430B60BB685A01FB68134403F5E3
:1028840030631946BB685A01FB68134403F530638F
:102894001B6843F400130B60002318461437BD462D
:1028A40080BC704780B584B000AF78607B68FB6003
:1028B400FB6803F500631A46FB6803F500635B6875
:1028C40023F0020353600320FDF794FE002318460F
:1028D4001037BD4680BD80B584B000AF78607B689A
:1028E400FB60FB6803F500631A46FB6803F50063AD
:1028F4005B6843F0020353600320FDF77BFE002373
:1029040018461037BD4680BD80B485B000AF7860EE
:1029140039607B68FB607B683C3304331B68BB60B5
:10292400BB681D4A93420AD9FB6803F530631B68F0
:1029340003F00043B3F1004F01D1002327E0FB680B
:1029440003F530631A4600231361FB6803F5306313
:102954001A46FB6803F530631B6943F400231361D3
:10296400FB6803F530631A46FB6803F530631B69A3
:1029740043F018031361FB6803F530631A46FB68E0
:1029840003F530631B6943F0C04313610023184609
:102994001437BD4680BC70470A30544F80B485B0AC
:1029A40000AF78600023FB60FB680133FB60FB68C9
:1029B400124A934201D903231BE07B681B69002B55
:1029C400F2DA0023FB607B681B6943F001027B6839
:1029D4001A61FB680133FB60FB68084A934201D922
:1029E400032306E07B681B6903F00103012BF0D08D
:1029F400002318461437BD4680BC7047400D0300C1
:102A040080B584B000AF78600B46FB700023FB7385
:102A14007B681B7C002B15D14FF4007302228121AB
:102A2400786800F058FE7B680122DA624FF4007384
:102A340002220121786800F04EFE7B680122C3F86F
:102A44006C2112E0402302228121786800F043FEC9
:102A54007B680122DA62402302220121786800F0B7
:102A64003AFE7B680122C3F86C21082303228221E9
:102A7400786800F030FE7B6801221A644FF4077016
:102A840000F0E6FE02467B68C3F8B8227B68D3F800
:102A9400B832002B02D10123FB7326E07B68D3F804
:102AA400B832BB607B68D3F8BC321B689847BB68FC
:102AB4000022C3F81422BB680022C3F818227B68E2
:102AC4001B7C002B09D1BB68D3F804224FF400739C
:102AD4000121786800F086FE07E0BB68D3F8042281
:102AE40040230121786800F07DFEFB7B18461037F7
:102AF400BD4680BD80B584B000AF78600B46FB70E6
:102B04000023FB738121786800F00BFE7B680022B0
:102B1400DA620121786800F004FE7B680022C3F8C1
:102B24006C218221786800F0FCFD7B6800221A6425
:102B34007B68D3F8B832002B0ED07B68D3F8BC3254
:102B44005B6898477B68D3F8B832184600F08CFE6F
:102B54007B680022C3F8B822FB7B18461037BD46B9
:102B640080BD80B586B000AF786039607B68D3F8EB
:102B7400B8323B610023FB730023BB810023FB7548
:102B84003B681B7803F06003002B39D0202B7CD1E9
:102B94003B68DB88002B29D03B681B785BB2002B99
:102BA40011DA7B68D3F8BC329B683A68507839698B
:102BB4003A68D288984739693B68DB881A4678684E
:102BC40000F0ABFA68E03B685A783B6983F800226E
:102BD4003B68DB88DAB23B6983F8012239693B68D8
:102BE400DB881A46786800F0B4FA55E07B68D3F8BD
:102BF400BC329B683A6850780022396898474BE0A9
:102C04003B685B780A2B17D00B2B29D0002B33D1D0
:102C14007B6893F89C32032B07D107F10C03022243
:102C24001946786800F079FA2EE03968786800F07F
:102C34000AFA0223FB7527E07B6893F89C32032B86
:102C440007D107F10F0301221946786800F065FAED
:102C54001AE03968786800F0F6F90223FB7513E08E
:102C64007B6893F89C32032B0DD03968786800F0A8
:102C7400EAF90223FB7506E03968786800F0E3F9A5
:102C84000223FB7500E000BF06E03968786800F0B5
:102C9400DAF90223FB7500BFFB7D18461837BD46E1
:102CA40080BD80B584B000AF78600B46FB707B6854
:102CB400D3F8B832FB607B68D3F8C032BB607B6862
:102CC400D3F8B832002B3AD0FA78796813469B00CF
:102CD40013449B000B441C331B68002B29D0FA7847
:102CE400796813469B0013449B000B441C331A68F9
:102CF400F978B8680B46DB005B1A9B000344443345
:102D04001B68B2FBF3F103FB01F3D31A002B10D1C0
:102D1400FA78796813469B0013449B000B441C33D8
:102D240000221A60F97800230022786800F037FD49
:102D340003E0FB680022C3F81422002300E002230E
:102D440018461037BD4680BD80B584B000AF7860AA
:102D54000B46FB707B68D3F8B832FB60FB781946EE
:102D6400786800F062FD0246FB68C3F80C227B68B9
:102D7400D3F8B832002B0DD07B68D3F8BC32DB68B3
:102D8400FA68D2F80402FA6802F503721146984709
:102D9400002300E0022318461037BD4680BD80B5ED
:102DA40084B000AF78607B68D3F8B832FB607B688E
:102DB400D3F8BC32002B15D0FB6893F80032FF2BFC
:102DC40010D07B68D3F8BC329B68FA6892F8000292
:102DD400F968FA6892F8012292B29847FB68FF22D8
:102DE40083F80022002318461037BD4680BD00003A
:102DF40080B483B000AF78607B6843221A80034BB1
:102E040018460C37BD4680BC704700BF90000020B8
:102E140080B483B000AF78607B6843221A80034B90
:102E240018460C37BD4680BC704700BF4C000020DC
:102E340080B483B000AF78607B6843221A80034B70
:102E440018460C37BD4680BC704700BFD400002034
:102E540080B483B000AF78607B680A221A80034B89
:102E640018460C37BD4680BC704700BF08000020E0
:102E740080B485B000AF786039600223FB733B688F
:102E8400002B05D07B683A68C3F8BC220023FB738F
:102E9400FB7B18461437BD4680BC704780B487B0AE
:102EA40000AFF860B9601346FB80FB68D3F8B83212
:102EB4007B617B69BA68C3F80822FA887B69C3F826
:102EC4001022002318461C37BD4680BC704780B4CE
:102ED40085B000AF786039607B68D3F8B832FB60A6
:102EE400FB683A68C3F80422002318461437BD4629
:102EF40080BC704780B584B000AF78607B68D3F83D
:102F0400B832FB607B68D3F8B832002B1CD0FB6866
:102F1400D3F81432002B15D1FB680122C3F8142214
:102F2400FB68D3F810227B681A63FB68D3F8082285
:102F3400FB68D3F810329BB28121786800F02FFC33
:102F4400002302E0012300E0022318461037BD46A7
:102F540080BD80B584B000AF78607B68D3F8B832A8
:102F6400FB607B68D3F8B832002B17D07B681B7CDE
:102F7400002B09D1FB68D3F804224FF4007301211C
:102F8400786800F02FFC07E0FB68D3F804224023A4
:102F94000121786800F026FC002300E00223184693
:102FA4001037BD4680BD80B584B000AFF860B9600D
:102FB4001346FB71FB68002B01D102231AE0FB6866
:102FC400D3F8B432002B03D0FB680022C3F8B42238
:102FD400BB68002B03D0FB68BA68C3F8B022FB6857
:102FE400012283F89C22FB68FA791A70F86800F0D1
:102FF40017FB002318461037BD4680BD80B485B04A
:1030040000AF786039600023FB733B68002B06D067
:103014007B683A68C3F8B4220023FB7301E00223FF
:10302400FB73FB7B18461437BD4680BC704780B5E4
:1030340082B000AF7860786800F032FB0023184655
:103044000837BD4680BD80B582B000AF7860396076
:103054008021786800F084FB0021786800F080FB10
:1030640000BF0837BD4680BD80B586B000AFF860AC
:10307400B9607A600023FB75FB68002B32D0F868D6
:1030840000F034F8034601339BB25B009AB27B68CC
:103094001A80FB7D5A1CFA751A46BB6813447A6879
:1030A40012781A70FB7D5A1CFA751A46BB681344D1
:1030B40003221A7012E0FB7D5A1CFA751A46BB688B
:1030C4001A44FB68591CF9601B781370FB7D5A1C69
:1030D400FA751A46BB68134400221A70FB681B7801
:1030E400002BE8D100BF1837BD4680BD80B485B041
:1030F40000AF78600023FB7305E0FB7B0133FB73B7
:103104007B6801337B607B681B78002BF5D1FB7BEC
:1031140018461437BD4680BC704780B584B000AFF4
:10312400F860B9601346FB80FB680222C3F894225E
:10313400FA88FB68DA61FA88FB681A62FB88BA6865
:103144000021F86800F02BFB002318461037BD4619
:1031540080BD80B584B000AFF860B9601346FB80D1
:10316400FB680322C3F89422FA88FB68C3F85C2145
:10317400FA88FB68C3F86021FB88BA680021F86804
:1031840000F030FB002318461037BD4680BD000018
:1031940080B483B000AF0E4A0D4B9B6943F0040327
:1031A40093610B4B9B6903F004037B607B68084AC3
:1031B400074B9B6943F008039361054B9B6903F03C
:1031C40008033B603B6800BF0C37BD4680BC7047BA
:1031D4000010024080B500AFFDF7AAF900F006F830
:1031E400FFF7D6FF00F016F9FEE7000080B59CB0AB
:1031F40000AF07F1380338220021184600F0C2FC62
:1032040007F1240300221A605A609A60DA601A6196
:103214003B1D20220021184600F0B4FC0123BB63AF
:103224004FF480333B6400237B640123FB6400235D
:10323400FB630223BB654FF48033FB654FF4E0135B
:103244003B6600237B6607F138031846FDF710FE42
:103254000346002B01D000F03CF80F237B620223CD
:10326400BB620023FB624FF480633B6300237B63F8
:1032740007F1240302211846FEF710F90346002B38
:1032840001D000F026F810237B6000233B623B1D35
:103294001846FEF7E9FA0346002B01D000F019F8AE
:1032A400034B01221A6000BF7037BD4680BD00BFCA
:1032B4007000424280B582B000AF786039603B68EC
:1032C4009BB21946786800F069F900BF0837BD461B
:1032D40080BD80B400AF00BFBD4680BC7047000015
:1032E40080B485B000AF154A144B9B6943F00103C9
:1032F4009361124B9B6903F00103BB60BB680F4AE7
:103304000E4BDB6943F08053D3610C4BDB6903F054
:1033140080537B607B680A4B5B68FB60FB6823F02F
:10332400E063FB60FB6843F00073FB60044AFB68E6
:10333400536000BF1437BD4680BC70470010024084
:103344000000014080B400AF00BFBD4680BC7047A0
:1033540080B400AFFEE780B400AFFEE780B400AFF6
:10336400FEE780B400AFFEE780B400AF00BFBD4607
:1033740080BC704780B400AF00BFBD4680BC7047BE
:1033840080B400AF00BFBD4680BC704780B500AFBD
:10339400FDF714F900BF80BD80B400AF1A4A1A4B80
:1033A4001B6843F0010313601749174B5A68174B06
:1033B40013404B60144A144B1B6823F0847323F4AA
:1033C40080331360104A104B1B6823F4802313606E
:1033D4000D4A0D4B5B6823F4FE0353600A4A0A4B03
:1033E4001B6823F0A0531360074B4FF47F029A60CD
:1033F400054B0022DA62064B4FF000629A6000BF70
:10340400BD4680BC704700BF001002400000FFF0C2
:1034140000ED00E080B500AF002212491248FFF72A
:10342400C2FD0346002B01D0FFF753FF0F490E489E
:10343400FFF7E4FD0346002B01D0FFF74AFF0C49D8
:103444000948FFF715FD0346002B01D0FFF741FFA4
:103454000548FFF7ECFD0346002B01D0FFF739FFC9
:1034640000BF80BD2C010020BC03002014000020FC
:103474001C01002080B500AF002205490548FFF774
:103484000DFD05490348FFF722FD0023184680BDC2
:10349400680A0020BC0300208006002080B400AF2E
:1034A40000231846BD4680BC7047000080B483B03A
:1034B40000AF03463960FB711346BB80FB79232BB5
:1034C4004AD801A252F823F05D3500085D350008A2
:1034D4005D3500085D3500085D3500085D35000880
:1034E4005D3500085D3500085D3500085D35000870
:1034F4005D3500085D3500085D3500085D35000860
:103504005D3500085D3500085D3500085D3500084F
:103514005D3500085D3500085D3500085D3500083F
:103524005D3500085D3500085D3500085D3500082F
:103534005D3500085D3500085D3500085D3500081F
:103544005D3500085D3500085D3500085D3500080F
:103554005D3500085D35000800BF002318460C37B0
:10356400BD4680BC704700BF80B582B000AF7860B4
:10357400396079680848FFF7AAFC0748FFF7E9FCB7
:103584003B681B6819467868FFF794FE00231846C9
:103594000837BD4680BD00BFBC03002080B584B0A1
:1035A40000AF78600B467B800023FB730D4BD3F890
:1035B400B832BB60BB68D3F81432002B01D00123AE
:1035C4000BE07B881A4679680648FFF767FC0548D4
:1035D400FFF790FC0346FB73FB7B18461037BD4690
:1035E40080BD00BFBC03002080B485B000AF78600C
:1035F4007B681B68B3F1A04F0BD1084A074B5B698A
:1036040043F480535361054B5B6903F48053FB60BF
:10361400FB6800BF1437BD4680BC704700100240F1
:1036240080B582B000AF78607B681B78002B30D106
:103634001A4A7B68C2F8FC337B68184AC3F8C02274
:10364400164B4FF0A0421A60144B04225A60134BDD
:103654000222DA60114B0022DA61104B00221A6256
:103664000E4B0022DA620D48FDF7C7F80346002B23
:1036740001D0FFF72EFE80210848FDF7E9FB402228
:1036840000210648FDF79EFB802201210348FDF737
:1036940099FB002318460837BD4680BD500E002014
:1036A40080B584B000AF78600023FB730023BB7344
:1036B4007B68D3F8C0321846FDF7BCF90346FB73A8
:1036C400FB7B184600F0DAF80346BB73BB7B184655
:1036D4001037BD4680BD80B584B000AF7860084621
:1036E40011461A460346FB700B46BB7013463B80DB
:1036F4000023FB730023BB737B68D3F8C002BB7841
:103704003A88F978FDF7B8F90346FB73FB7B184652
:1037140000F0B4F80346BB73BB7B18461037BD46B4
:1037240080BD80B584B000AF78600B46FB70002389
:10373400FB730023BB737B68D3F8C032FA7811465D
:103744001846FDF701FA0346FB73FB7B184600F0AD
:1037540095F80346BB73BB7B18461037BD4680BD46
:1037640080B584B000AF78600B46FB700023FB7318
:103774000023BB737B68D3F8C032FA78114618462D
:10378400FDF7BEFA0346FB73FB7B184600F076F8A0
:103794000346BB73BB7B18461037BD4680BD80B55E
:1037A40086B000AFF8607A601A460B46FB72134687
:1037B4003B810023FB750023BB75FB68D3F8C00273
:1037C4003B89F97A7A68FDF75EFA0346FB75FB7D5F
:1037D400184600F053F80346BB75BB7D18461837EE
:1037E400BD4680BD80B586B000AFF8607A601A46E9
:1037F4000B46FB7213463B810023FB750023BB750C
:10380400FB68D3F8C0023B89F97A7A68FDF7E6F9D8
:103814000346FB75FB7D184600F030F80346BB7584
:10382400BB7D18461837BD4680BD80B582B000AF59
:1038340078600B46FB707B68D3F8C032FA78114687
:103844001846FDF709FA034618460837BD4680BDF9
:1038540080B483B000AF7860024B18460C37BD4685
:1038640080BC70479801002080B483B000AF7860BA
:1038740000BF0C37BD4680BC7047000080B485B0E3
:1038840000AF0346FB710023FB73FB79032B17D8AE
:1038940001A252F823F000BFAD380008B338000885
:1038A400B9380008BF3800080023FB730BE002237B
:1038B400FB7308E00123FB7305E00223FB7302E0C2
:1038C4000223FB7300BFFB7B18461437BD4680BC44
:1038D400704700BF80B483B000AF03463960FB710A
:1038E4003B6812221A80034B18460C37BD4680BC35
:1038F400704700BF4801002080B483B000AF034686
:103904003960FB713B6804221A80034B18460C375C
:10391400BD4680BC704700BF5C01002080B582B00A
:1039240000AF03463960FB71FB79002B05D13A687F
:1039340007490848FFF798FB04E03A68044905483A
:10394400FFF792FB024B18460837BD4680BD00BF07
:1039540050120020D03B000880B582B000AF03466F
:103964003960FB713A6804490448FFF77DFB024B58
:1039740018460837BD4680BD50120020E83B0008B9
:1039840080B582B000AF03463960FB713B681A22F0
:103994001A8000F043F8024B18460837BD4680BD34
:1039A4006001002080B582B000AF03463960FB712E
:1039B400FB79002B05D13A6807490848FFF754FB07
:1039C40004E03A6804490548FFF74EFB024B1846E9
:1039D4000837BD4680BD00BF50120020FC3B0008E4
:1039E40080B582B000AF03463960FB71FB79002BD0
:1039F40005D13A6807490848FFF736FB04E03A68FE
:103A040004490548FFF730FB024B18460837BD460A
:103A140080BD00BF50120020083C000880B584B06F
:103A240000AF0F4B1B68FB600E4B1B68BB600E4B5B
:103A34001B687B60FA687B681344FB60FB68002B9F
:103A440009D008220949F86800F014F8042208494A
:103A5400B86800F00FF800BF1037BD4680BD00BF46
:103A6400E8F7FF1FECF7FF1FF0F7FF1F62010020CC
:103A74007201002080B487B000AFF860B9601346CB
:103A8400FB710023FB750023FB7527E0FB681B0F0C
:103A9400092B0BD8FB7D5B001A46BB681344FA68FC
:103AA400120FD2B23032D2B21A700AE0FB7D5B0040
:103AB4001A46BB681344FA68120FD2B23732D2B234
:103AC4001A70FB681B01FB60FB7D5B000133BA6865
:103AD400134400221A70FB7D0133FB75FA7DFB79D8
:103AE4009A42D3D300BF1C37BD4680BC7047000048
:103AF400002103E00B4B5B58435004310A480B4B45
:103B040042189A42F6D30A4A02E0002342F8043BE0
:103B1400084B9A42F9D3FFF73FFC00F00FF8FFF788
:103B240059FB7047383C0008000000207C0100204D
:103B34007C01002050140020FEE7000070B5002531
:103B44000C4E0D4CA41BA410A54209D100F022F880
:103B540000250A4E0A4CA41BA410A54205D170BD31
:103B640056F8253098470135EEE756F82530984742
:103B74000135F2E7303C0008303C0008303C0008D6
:103B8400343C000803460244934200D1704703F8D2
:103B9400011BF9E7F8B500BFF8BC08BC9E467047A6
:0C3BA400F8B500BFF8BC08BC9E46704796
:103BB000000004050607080900000000000D0000D1
:103BC0000102030405060708090A0B0C0D0E0F106D
:103BD00053544D3332205669727475616C20436FB3
:103BE0006D506F727400000053544D6963726F65BD
:103BF0006C656374726F6E696373000043444320A5
:103C0000436F6E666967000043444320496E7465E4
:103C100072666163650000000000000000000000A3
:083C2000010203040607080974
:083C28002CC6FF7F0100000023
:043C3000090200087D
:043C3400E50100089E
:103C380010000000010000000A0600020000004019
:103C480001000000052A0008F92A0008672B00086F
:103C580000000000A32D0008A72C00084D2D000827
:103C6800000000000000000000000000152E000801
:103C7800F52D0008352E0008552E000809024300CE
:103C8800020100C0320904000001020201000524FB
:103C98000010010524010001042402020524060085
:103CA800010705820308001009040100020A000048
:103CB800000705010200020007058102000200005A
:103CC80009024300020100C0320904000001020297
:103CD800010005240010010524010001042402024A
:103CE80005240600010705820308001009040100E5
:103CF800020A0000000705010240000007058102D2
:103D08004000000009074300020104C03209040012
:103D18000001020201000524001001052401000130
:103D28000424020205240600010705820308001086
:103D380009040100020A0000000705010240000012
:103D480007058102400000000024F40079340008CF
:103D5800A1340008B13400086D350008D9380008CE
:103D6800FD3800085D390008213900088539000848
:103D7800A9390008E53900081201000202020040D2
:103D880083044057000201020301000004030904F0
:103D98001A030000000000000000000000000000FE
:0C3DA8000000000000000000000000000F
:0400000508003AF5C0
:00000001FF
